:020000040000FA
:060000000A128A11122809
:10000800FE00030E83120313AA000408AB000A08BB
:10001800AC007F08AD000A128A15C92D0A128A1190
:1000280015288317B430FD000B30FE004B30FF005D
:10003800A43084000A128A155F230A128A118313D6
:100048005A30FD000B30FE003D30FF004C3084007C
:100058000A128A155F230A128A11831790308400C6
:10006800A4300A128A1511230A128A118313A030A8
:100078008400E6300A128A1511230A128A113C30CC
:1000880084004C300A128A15112383010A128A113E
:100098004D288316031388010A128A156C230A1245
:1000A8008A110A128A1522230A128A1180300A122A
:1000B8008A151B240A128A1138300A128A158923D4
:1000C8000A128A110D3083160313EE00AF30ED00CB
:1000D800B530EC00EC0B6E28ED0B6E28EE0B6E289D
:1000E800752801300A128A151B240A128A118030D9
:1000F8000A128A151B240A128A1149300A128A1513
:1001080089230A128A11C0300A128A151B240A127E
:100118008A1127300A128A1589230A128A110D308A
:1001280083160313EE00AF30ED00B530EC00EC0B96
:100138009B28ED0B9B28EE0B9B28A22801300A1266
:100148008A151B240A128A1180300A128A151B2468
:100158000A128A116B300A128A1589230A128A1127
:100168000D3083160313EE00AF30ED00B530EC0010
:10017800EC0BBC28ED0BBC28EE0BBC28C3280130C7
:100188000A128A151B240A128A1180300A128A154B
:100198001B240A128A1114300A128A1589230A129A
:1001A8008A1183160317BC01BD010A128A11CF26D2
:1001B8000A128A1183160313EC006C0883160317BE
:1001C800C000400A0319D52801300A128A151B24D9
:1001D8000A128A1180300A128A151B240A128A11FF
:1001E8002F30831603174006031D442989300A124D
:1001F8008A1589230A128A110A128A11CF260A122D
:100208008A1183160313EC006C0883160317C000C9
:1002180031304002031C00293A30400203180029FB
:1002280040080A128A1557240A128A1183160317DE
:100238004008D03E83120313CC00FF30031800306F
:10024800CD004C0883160313EC006C07903E840025
:10025800831203134C0883178000840A4D0880001A
:100268000A128A11CF260A128A1183160313EC0088
:100278006C0883160317C0003D304006031D34295F
:100288002A304006031DEF297C300A128A1589237B
:100298000A128A110A128A11CF260A128A118316A3
:1002A8000313EC006C0883160317C00031304002BA
:1002B800031C4E293A30400203184E2940080A12FE
:1002C8008A1557240A128A118316031740088316C1
:1002D8000313EC006C0883160317BE000A128A1178
:1002E800CF260A128A1183160313EC006C088316B2
:1002F8000317C00030304002031C72293A30400214
:100308000318722940080A128A1557240A128A11FA
:1003180083160317400883160313EC006C08831632
:100328000317BF003E0883160313EC00ED016C08A9
:1003380083120313B600831603136D088312031385
:10034800B7000A30B8000030B9000A128A15AB238A
:100358000A128A11831603173F08831203133607FC
:1003680083160313EE0000300318013083120313C1
:10037800370783160313EF006E08F03E8316031742
:10038800B400831603136F080318013EFD3E83165D
:100398000317B500831203134C0883160313EC00EC
:1003A8006C07B43E84008316031734088313800057
:1003B800840A350880000A128A11CF260A128A1187
:1003C80083160313EC006C0883160317C0003D3036
:1003D8004006031DDF292B304006031D962A0130F5
:1003E8000A128A1589230A128A11C0300A128A153C
:1003F8001B240A128A1195300A128A1589230A12B7
:100408008A111A3083160313EE005E30ED006D304A
:10041800EC00EC0B0D2AED0B0D2AEE0B0D2A142A1D
:1004280001300A128A151B240A128A110A128A1527
:100438002F230A128A11FF308316031385000A122C
:100448008A152F230A128A110A128A150A230A12F8
:100458008A110A128A1519230A128A116D2A803004
:100468000A128A151B240A128A11B4300A128A1534
:1004780089230A128A11831203134308831603136C
:10048800EB0083120313420883160313EA000A12CF
:100498008A11B8230A128A11C0300A128A151B243D
:1004A8000A128A11AC300A128A1589230A128A1193
:1004B80083120313590883160313EB0083120313E3
:1004C800580883160313EA000A128A11B8230A127D
:1004D8008A110A128A11CF260A128A118316031367
:1004E800EC006C0883160317C0002D304006031D6E
:1004F800332A0130BC000030BD000D3083160313D1
:10050800EE00AF30ED00B530EC00EC0B892AED0BB6
:10051800892AEE0B892A902A01300A128A151B248F
:100528000A128A112D30831603174006031DD92A93
:100538003C033D04031DD92A5A300A128A1589231F
:100548000A128A111A3083160313EE005E30ED008A
:100558006D30EC00EC0BAE2AED0BAE2AEE0BAE2A9A
:10056800B52A01300A128A151B240A128A1183122D
:1005780003134C0883160313EC006C07A03E840099
:1005880083120313420883138000840A43088000FF
:100598001F10831603130C108312031310108B13F0
:1005A8000B13D801D901C201C301433083160317C5
:1005B8004006031DD528A1300A128A1589230A127C
:1005C8008A11C0300A128A151B240A128A1189302E
:1005D8000A128A1589230A128A110A128A11CF2649
:1005E8000A128A1183160313EC006C08831603178A
:1005F800C00031304002031CF12A3A30400203188F
:10060800F12A40080A128A1557240A128A110D3055
:1006180083160313EE00AF30ED00B530EC00EC0BA1
:10062800132BED0B132BEE0B132B1A2B831603171F
:100638004008D03E83120313CC00FF30031800306B
:10064800CD004D0883160317B700831203134C0817
:1006580083160317B600831203134C08831603137B
:10066800EC006C07B43E840083130008831603175C
:10067800B800840A0008B900831203134C088316D3
:100688000313EC006C07A03E8400000883160317D0
:10069800BA00840A0008BB0001300A128A151B241C
:1006A8000A128A1180300A128A151B240A128A112A
:1006B800C6300A128A1589230A128A11831603176B
:1006C800370883160313EB008316031736088316BF
:1006D8000313EA000A128A11B8230A128A11C130D8
:1006E8000A128A1589230A128A11831603173908F0
:1006F80083160313EB0083160317380883160313B6
:10070800EA000A128A11B8230A128A11C0300A12A2
:100718008A151B240A128A11BC300A128A158923E9
:100728000A128A11831603173B0883160313EB007A
:10073800831603173A0883160313EA000A128A116C
:10074800B8230A128A110A128A11CF260A128A11AC
:1007580083160313EC006C0883160317C0003D30A2
:1007680040060319D528A72B831603136B08803A74
:10077800FF0083307F02031DC32BE8306A02031C8D
:10078800942CE83083120313B6000330B7008316A5
:1007980003136B0883120313B900831603136A0843
:1007A80083120313B8000A128A154C250A128A11FB
:1007B800831203133608303E0A128A1557240A1288
:1007C8008A11E83083120313B6000330B70083168A
:1007D80003136B0883120313B900831603136A0803
:1007E80083120313B8000A128A15EC240A128A111C
:1007F80083120313370883160313EB0083120313C2
:10080800360883160313EA00643083120313B60014
:100818000030B700831603136B0883120313B90063
:10082800831603136A0883120313B8000A128A1581
:100838004C250A128A11831203133608303E0A1215
:100848008A1557240A128A11643083120313B600DA
:100858000030B700831603136B0883120313B90023
:10086800831603136A0883120313B8000A128A1541
:10087800EC240A128A118312031337088316031310
:10088800EB0083120313360883160313EA000A30B9
:1008980083120313B6000030B700831603136B08E6
:1008A80083120313B900831603136A088312031310
:1008B800B8000A128A154C250A128A1183120313EA
:1008C8003608303E0A128A1557240A128A110A304D
:1008D80083120313B6000030B700831603136B08A6
:1008E80083120313B900831603136A0883120313D0
:1008F800B8000A128A15EC240A128A11831203130B
:10090800370883160313EB00831203133608831684
:100918000313EA006A08303E0A128A1557240800B1
:10092800831603136B08803AFF0083307F02031D90
:100938009F2CE8306A020318402D831603136B08B6
:10094800803AFF0080307F02031DAC2C64306A02BD
:10095800031C402D643083120313B6000030B70027
:10096800831603136B0883120313B900831603134A
:100978006A0883120313B8000A128A154C250A1252
:100988008A11831203133608303E0A128A15572437
:100998000A128A11643083120313B6000030B700BC
:1009A800831603136B0883120313B900831603130A
:1009B8006A0883120313B8000A128A15EC240A1273
:1009C8008A1183120313370883160313EB0083126B
:1009D8000313360883160313EA000A30831203133D
:1009E800B6000030B700831603136B088312031395
:1009F800B900831603136A0883120313B8000A1296
:100A08008A154C250A128A11831203133608303EC0
:100A18000A128A1557240A128A110A3083120313FC
:100A2800B6000030B700831603136B088312031354
:100A3800B900831603136A0883120313B8000A1255
:100A48008A15EC240A128A118312031337088316B5
:100A58000313EB0083120313360883160313EA000B
:100A68006A08303E0A128A1557240A128A11203061
:100A78000A128A1557240800831603136B08803A54
:100A8800FF0080307F02031D4B2D64306A0203187B
:100A9800AF2D831603136B08803AFF0080307F0266
:100AA800031D582D0A306A02031CAF2D0A30831229
:100AB8000313B6000030B700831603136B088312C4
:100AC8000313B900831603136A0883120313B800CB
:100AD8000A128A154C250A128A1183120313360842
:100AE800303E0A128A1557240A128A110A308312D4
:100AF8000313B6000030B700831603136B08831284
:100B08000313B900831603136A0883120313B8008A
:100B18000A128A15EC240A128A1183120313370861
:100B280083160313EB00831203133608831603138B
:100B3800EA006A08303E0A128A1557240A128A11F6
:100B480020300A128A1557240A128A1120300A12F4
:100B58008A1557240800831603136B08803AFF0090
:100B680080307F02031DBA2D0A306A020318E32D74
:100B7800831603136B08803AFF0080307F02031D41
:100B8800C72D01306A02031CE32D831603136A087C
:100B9800303E0A128A1557240A128A1120300A1286
:100BA8008A1557240A128A1120300A128A155724E6
:100BB8000A128A1120300A128A155724080083164F
:100BC80003136A086B04031D080030300A128A15E3
:100BD80057240A128A1120300A128A1557240A1239
:100BE8008A1120300A128A1557240A128A112030D5
:100BF8000A128A155724080006308A000408840A55
:100C080082070034533474346134723474342034B9
:100C1800433461346C34633475346C346134743403
:100C280069346E3467342034003450347234653497
:100C380073347334203461346E34793420346B3433
:100C48006534793420342E342E342E342E34003446
:100C580020342034203420342034503472346F341B
:100C68006A346534633474342034203420342034B6
:100C78000034203420342034573465346C346334E1
:100C88006F346D346534203454344F342034203478
:100C9800203400342034203420344834653461341E
:100CA80072347434203452346134743465342034EA
:100CB80020342034003445346E34643420344334D2
:100CC80061346C34633475346C346134743469342D
:100CD8006E346734203400345534733469346E34D8
:100CE800673420345034493443343134363446344C
:100CF8003834373437344134003445346E3474343E
:100D080065347234203441346734653420343A34DD
:100D18002034003445346E347434653472342034ED
:100D28004934443420343A342034003442344D3485
:100D38005034203461346E346434203449344234BD
:100D480049340034533468346F34773420344434AD
:100D580061347434613420340034493442344934C1
:100D680020343A342D3420340034423450344D3455
:100D780020343A342D3420340034423450344D3445
:100D88003A3400344134673465343A3400344934F1
:100D980044343A34003483120313B9018601061A25
:100DA800192FB901B90A06108615861DDF2E831280
:100DB80003130615E22E831203130611061DE82EEF
:100DC800831203138614EB2E831203138610061A5C
:100DD800861EF22E061FF22E861BF42ECB011E2F26
:100DE80086100614061A861EFD2E061FFD2E861B6B
:100DF800002FCB01CB0A1E2F06118614061A861E59
:100E0800092F061F092F861B0B2F0230152F86115D
:100E18000615061A861E142F061F142F861BD32E9E
:100E28000330B6003608CB001E2F861A061FD52EB3
:100E3800861FD52E061E861E262F061B861F262FCA
:100E4800CA01412F061A861A2F2F061B861F2F2F1D
:100E5800CA01CA0A412F061A861E372F061F861F87
:100E6800372F02303E2F061A861E412F061B861B7F
:100E7800412F0330B6003608CA00061A861E412FD5
:100E8800061B861F412F3908031D4C2FFF30080011
:100E98004B08B60002300310B60DFF3E031D4F2F5E
:100EA800A4303607B7004A083707B8003808840066
:100EB80083170008080083120313A101F31F712F81
:100EC800F009F109F209F309F00A0319F10A031903
:100ED800F20A0319F30AA101A10AF71F822FF409E4
:100EE800F509F609F709F40A0319F50A0319F60AC8
:100EF8000319F70A0130F8007808A1060030A500A8
:100F08000030A4000030A3000030A200730872046F
:100F1800710470040319D72FA001A00AF31BA22F94
:100F28000130F8000310F00DF10DF20DF30DF80B80
:100F3800962F0130F8007808A007922F0130F800AA
:100F48000310A20DA30DA40DA50DF80BA42F730873
:100F58007702031DB92F72087602031DB92F710895
:100F68007502031DB92F70087402031CCA2F70087C
:100F7800F4027108031C710FF5027208031C720F4A
:100F8800F6027308031C730FF702221401300310D2
:100F9800F30CF20CF10CF00CFF3E031DCB2F0130CB
:100FA800A002031DA22F21080319E52FA209A309F6
:100FB800A409A509A20A0319A30A0319A40A031973
:100FC800A50A2508F3002408F2002308F1002208E6
:100FD800F000080083120313B601B7010130B60709
:100FE8000318B70A0030B70703303702E93003198E
:080FF800360203180800F22F75
:10161400831203131016901690101014080064001F
:101624008001840A0406031900340406122B8B1764
:101634000B17831603130C14831203130C100800E6
:10164400F0308316031386007F3083120313B60031
:10165400360883160313810508003F3083120313F1
:101664009F05C7309F051F10831603139F171F1371
:10167400F0309F050800FF34FF3401340034643433
:101684000034003402340034023400340234583458
:1016940002343734383439342F343434353436342E
:1016A4002A343134323433342D34433430343D34F9
:1016B4002B347E088A007F0882005B230A128A1575
:1016C4008000840A04087D0603190034FF0A031904
:1016D400FE0A5F2B02300A128A151B240A128A158D
:1016E40028300A128A151B240A128A150E300A128F
:1016F4008A151B240A128A1506300A128A151B241D
:101704000A128A1580300A128A151B2408008316CF
:101714000313E600660884000A128A1100260A12DE
:101724008A15003A03190800660884000A128A110F
:1017340000260A128A150A128A1557240A128A15D3
:10174400013083120313BB003B0883160313E6071F
:101754008C2B83120313BA01BB01361CB72B380838
:10176400BA070318BB0A3908BB0701300310B80DC8
:10177400B90DFF3E031DB82B01300310B70CB60C96
:10178400FF3E031DBF2B36083704031DAF2B3B0858
:10179400B7003A08B6000800831203131F14700838
:1017A400F200F20DF20DF20D1F087206C73972062F
:1017B4009F004130F300EE30F200F20BDF2BF30B0D
:1017C400DF2B0000831203131F151F19E72B1E08BC
:1017D400F500831603131E08F4007508F10074085D
:1017E400F000080083120313A001A101791C022C4C
:1017F4007B0883120313A0070318A10A7C08A1071E
:1018040001300310FB0DFC0DFF3E031D032C0130C2
:101814000310FA0CF90CFF3E031D0A2C79087A0414
:10182400031DF82B831203132108FA002008F90082
:10183400080083120313BA0008110F30B8003808E7
:1018440088053A08F039B8003808880488150A125F
:101854008A11EE270A128A158312031388110A12B9
:101864008A11EE270A128A150F3083120313B80067
:10187400380888053A08B80003300310B80DFF3E55
:10188400031D3F2C0310380DF039B90039088804C2
:1018940088150A128A11EE270A128A158312031375
:1018A40088110A128A11EE27080083120313BA0062
:1018B40008150F30B800380888053A08F039B80020
:1018C4003808880488150A128A11EE270A128A1524
:1018D4008312031388110A128A11EE270A128A1539
:1018E4000F3083120313B800380888053A08B8008B
:1018F40003300310B80DFF3E031D7B2C0310380D7D
:10190400F039B9003908880488150A128A11EE27BB
:101914000A128A158312031388110A128A11EE27F8
:101924000800F601F11F9D2CF009F109F00A0319D2
:10193400F10AF601F60AF31FA82CF209F309F20AD8
:101944000319F30A0130F4007408F606F701F801EC
:10195400700871040319DF2CF501F50AF11BBE2C84
:1019640001300310F00DF10DFF3E031DB32C0130C7
:10197400F4007408F507B02C01300310F70DF80DCE
:10198400FF3E031DBF2C71087302031DCB2C70088E
:101994007202031CD42C7008F2027108031CF303B6
:1019A400F302771401300310F10CF00CFF3E031D19
:1019B400D52C0130F502031DBE2C76080319E72C43
:1019C400F709F809F70A0319F80A7808F100770803
:1019D400F000080083160313E70183120313B91FF1
:1019E400FC2CB809B909B80A0319B90A83160313F8
:1019F400E701E70A8312B71F042DB609B709B60A2F
:101A04000319B70A3608370403193A2D831603134A
:101A1400E601E60A83120313B71B1E2D01300310DF
:101A2400B60DB70DFF3E031D112D0130BA003A0863
:101A340083160313E6070C2D831237083902031D9E
:101A4400252D36083802031C2D2D3608B802370818
:101A5400031CB903B90201300310B70CB60CFF3EE6
:101A6400031D2E2D013083160313E602031D1E2DC4
:101A74008316031367080319462D83120313B80949
:101A8400B909B80A0319B90A83123908B700380822
:101A9400B600080083160313E70183120313B71F6C
:101AA4005C2DB609B709B60A0319B70A83160313DE
:101AB400E701E70A8312B91F6A2DB809B909B80A00
:101AC4000319B90A0130BA003A0883160313E7066A
:101AD40083160313E801E90183120313360837045C
:101AE4000319B42D83160313E601E60A83120313C4
:101AF400B71B8A2D01300310B60DB70DFF3E031D31
:101B04007D2D0130BA003A0883160313E607782DB9
:101B14000130831603130310E80DE90DFF3E031D86
:101B24008D2D8312031337083902031D9B2D3608AC
:101B34003802031CA62D3608B8023708031CB90363
:101B4400B902831603136814013083120310B70C0F
:101B5400B60CFF3E031DA82D013083160313E602C5
:101B6400031D8A2D8316031367080319BE2DE80984
:101B7400E909E80A0319E90A690883120313B7009B
:101B840083160313680883120313B60008000C1CA1
:101B9400F32F3C308F00B0308E000C100230BE07A3
:101BA4000318BF0A0030BF0746083E02B2004708C8
:101BB400031C470A3F02B3003308C9003208C800B7
:101BC4000030F000F1000A128A15CE230A128A1599
:101BD400710883120313C1007008C0004108803AE1
:101BE400A6005308803A2602031DFA2D520840022B
:101BF40003183A2E0530F0000030F100831203136D
:101C04005908F3005808F2000A128A1593240A129C
:101C14008A157108FA007008F9000330FB000030DF
:101C2400FC000A128A15F4230A128A157A08803AEB
:101C340083120313A6003308803A2602031D242EC0
:101C44003208790203183A2E831203134108803AAA
:101C5400A6005508803A2602031D322E540840027D
:101C640003183A2E831203134108D5004008D40008
:101C7400831203135308803AA6004108803A2602CF
:101C8400031D462E4008520203185C2E83120313D0
:101C94005708803AA6004108803A2602031D542EB4
:101CA4004008560203185C2E831203134108D70020
:101CB4004008D600831203133308803AFF008030B3
:101CC4007F02031D672EFB303202031C852F831213
:101CD40003135308803AA6004108803A2602031DE4
:101CE400752E400852020318852F0530F00000308D
:101CF400F100831203135908F3005808F2000A1282
:101D04008A1593240A128A157108FA007008F900DA
:101D14000330FB000030FC000A128A15F4230A1277
:101D24008A157A08803A83120313A6003308803A8E
:101D34002602031D9F2E320879020318852F0130D5
:101D440083120313C4000030C50046083E02D800C5
:101D54004708031C470A3F02D9003F08C7003E0852
:101D6400C6003C083D040319F52EBC01BD0158080A
:101D7400F0005908F1000030F11BFF30F200F300CD
:101D84000030F7000030F600EA30F5006030F4006F
:101D94000A128A115F270A128A1571088312031323
:101DA400C3007008C200B001B101831203133008EC
:101DB400A6002607C83E8400580883138000840ABE
:101DC400590880000130B0070318B10A0030B10788
:101DD4003108803AFF0080307F02031DF32E0A3061
:101DE4003002031CD72E831203134E084F04031929
:101DF400022FCE01CF010130BC000030BD00F32F13
:101E0400AE01AF01B401B501831203133408A60077
:101E14002607CA3E840083130008A700840A00082A
:101E2400A8003408A9002907C83E840027088000B8
:101E3400840A280880003408A6002607C83E8400C7
:101E44000008A700840A0008A8002708AE070318A2
:101E5400AF0A2808AF070130B4070318B50A0030E9
:101E6400B5073508803AFF0080307F02031D3C2F00
:101E740009303402031C062F8312031359088316F6
:101E84000313DB0083120313580883160313DA00C9
:101E94005A0883120313AE070318AF0A83160313F9
:101EA4005B0883120313AF070A30F0000030F1001F
:101EB4002F08F3002E08F2000A128A1593240A123E
:101EC4008A15710883120313AF007008AE002E0840
:101ED400F0002F08F1000030F11BFF30F200F30096
:101EE4000030F7000030F600EA30F5006030F4000E
:101EF4000A128A115F270A128A15710883120313C2
:101F0400C3007008C200831203134108803AA6007C
:101F14005308803A2602031D912F520840020318E9
:101F2400C22F8312031344034504031DC22FC401AB
:101F3400C50154085602D0005508031C550A57021F
:101F4400D1000230F0000030F1005108F3005008D5
:101F5400F2000A128A1593240A128A1583120313B3
:101F640054087007D20055080318550A7107D300A6
:101F74005308D7005208D6005308D5005208D4009D
:101F8400831203133308803AFF0089307F02031D54
:101F9400CD2FC5303202031CF32F003083120313FC
:101FA400D2000230D3000030D6000230D700003017
:101FB400D4000230D5003F08C7003E08C6000130F7
:101FC400CE000030CF00BC01BD01C201C3015830B6
:101FD400D8000230D900C401C5016430D0000030FB
:101FE400D100831203132D08FF002C088A002B084C
:0C1FF40084002A0E8300FE0E7E0E090001
:02400E007A3FF7
:00000001FF
